:020000040000FA
:020000000A28CC
:10000800FE00030EF3000A08F40010280B28312123
:10001800F600F501830187288B1C1328142839283A
:1000280083120313051C19281A281E2885181D2851
:100038001E282B280514851475080319242826283A
:10004800013027280030F0007008F5003728F60145
:10005800F60A7503031D3128322835288514051042
:100068003728851005148B1080280B1C3C283D2848
:10007800802883120313061B42284328722805147C
:100088008514F6017503031D4A284B285E28851040
:100098000830F2009D30F1000530F000F00B5228D6
:1000A800F10B5228F20B5228592883120313851496
:1000B800F5017F2805100830F2009D30F100053069
:1000C800F000F00B6528F10B6528F20B65286C2809
:1000D800831203130514F501F50A7F28061A7528FB
:1000E8007628782805145C28861A7B287C287F289F
:1000F8008514F501F50A0B1074088A00730E830045
:10010800FE0E7E0E09003221DC20760803198D28A8
:100118008E28982883120313061A932894289F2858
:10012800861A972898289F28831203130516851581
:1001380004308506CB28061AA228A328AB28861ED9
:10014800A628A728AB28051685150511CB28061E55
:10015800AE28AF28B728861AB228B328B7280512C0
:1001680085150515CB28061EBA28BB28C828861E63
:10017800BE28BF28C828861BC228C328C828051639
:10018800083085060515CB28051685150515033095
:1001980083120313A5008A30A4005530A300A30BD3
:1001A800D328A40BD328A50BD328000089280A2814
:1001B8000730831203139F00831603138501F13060
:1001C8008600FF3083120313850098308B000511D9
:1001D800033083120313A2008A30A1005530A00017
:1001E800A00BF428A10BF428A20BF428000083121A
:1001F80003138511033083120313A2008A30A10070
:100208005530A000A00B0629A10B0629A20B062930
:100218000000831203130515851505120330831298
:100228000313A2008A30A1005530A000A00B1A29A0
:10023800A10B1A29A20B1A29000083120313051611
:10024800061A272928292A29F5013029861A2D294D
:0E0258002E292829F501F50A080001340800B6
:02400E0018FF99
:00000001FF
