:020000040000FA
:020000000A28CC
:10000800FE00030EF3000A08F40014280B286421EC
:10001800F5006521F6006621F700F80183019628AE
:100028008B1C172818284828F701F70A831203138E
:10003800061A1F2820282728861A23282428272834
:10004800051485144628051C2A282B282F288518CE
:100058002E282F283C2805148514780803193528DC
:100068003728013038280030F0007008F80046289A
:100078007803031D40284128442885140510462884
:10008800851005148B108F280B1C4B284C288F28A3
:1000980083120313061B5128522870287803031D66
:1000A800562857286C28051485100830F2009D3012
:1000B800F1000530F000F00B5F28F10B5F28F20B20
:1000C8005F286628831203138514F701F8018E2828
:1000D8008514F701F8018E28061A732874287C28DD
:1000E800861A772878287C2805148514F7018E2825
:1000F800061A7F28802887280514F8011430F5008F
:100108000030F6008E28861A8A288B288E288514B7
:10011800F801F80A0B1074088A00730E8300FE0EAB
:100128007E0E090067210A21770803199C289D285B
:10013800A72883120313061AA228A328AE28861A12
:10014800A628A728AE2883120313051685150430A0
:100158008506EC28061AB128B228CD28861EB528AF
:10016800B628CD28051685157608803AFF00803018
:100178007F02031DC12801307502031CC428C5284D
:10018800C928831203130511EC28831203130515DC
:10019800EC28061ED028D128D928861AD428D52894
:1001A800D928051285150515EC28061EDC28DD283A
:1001B800E928861EE028E128E928861BE428E528A6
:1001C800E928051608308506C92805168515051578
:1001D800FF30F5070318F60AFF30F607F61BF52877
:1001E800F628F728F928F501F601033083120313DE
:1001F800A5008A30A4005530A300A30B0129A40B45
:100208000129A50B0129000098280A280730831224
:1002180003139F00831603138501F1308600FF3016
:1002280083120313850098308B0083160313011380
:10023800831203130511033083120313A2008A30BB
:10024800A1005530A000A00B2729A10B2729A20B3C
:100258002729000083120313851103308312031327
:10026800A2008A30A1005530A000A00B3929A10BAB
:100278003929A20B392900008312031305158515A6
:100288000512033083120313A2008A30A1005530EF
:10029800A000A00B4D29A10B4D29A20B4D29000050
:1002A800831203130516061A5A295B295D29F801DA
:1002B8006329861A602961295B29F801F80A080070
:0802C800143400340134080075
:02400E0018FF99
:00000001FF
