:020000040000FA
:020000000A28CC
:10000800FE00030EF3000A08F400E3280B2802227E
:10001800F5000322F6000422F7000522F800F90192
:10002800830116280622A12183120313061A1D280C
:100038001E282028F901F7017808031D24282528FF
:100048002C28831203138513851104308506C628CE
:1000580083120313061A312832286D28861A352888
:1000680036286D2885138511051502308312031370
:10007800A5000430A400BA30A300A30B4128A40BA8
:100088004128A50B4128831203130511023083125E
:100098000313A5000430A400BA30A300A30B522810
:1000A800A40B5228A50B52288312031305150230FE
:1000B80083120313A5000430A400BA30A300A30BD5
:1000C8006328A40B6328A50B632883120313051167
:1000D800C628061A702871288D28861E7428752847
:1000E8008D28851385117608803AFF0080307F02BD
:1000F800031D802801307502031C83288428882862
:10010800831203130515C62883120313051105135B
:10011800C628061E902891289928861A942895287A
:100128009928851785110511C628061E9C289D2823
:10013800B328861EA028A128B328861BA428A52892
:10014800B328851CA828A928AB288517AC288513AF
:1001580008308506051CB128B22869288428061E9F
:10016800B628B728C328861EBA28BB28C328861FE6
:10017800BE28BF28C328851308308506692885133B
:1001880085110511FF30F5070318F60AFF30F60749
:10019800F61FCF28D028D228F501F60103308312A4
:1001A8000313A5008A30A4005530A300A30BDA2856
:1001B800A40BDA28A50BDA28000020280A288B1CB3
:1001C800E628E728302983120313061AEC28ED28BD
:1001D800F428861AF028F128F42805108510242917
:1001E8000518F728F828FC28851CFB28FC2809296D
:1001F80005108510790803190229042901300529F9
:100208000030F0007008F90024297903031D0D2936
:100218000E291929061E11291229152985100514D8
:10022800242985140510F9012429861E1C291D2955
:10023800202985140510242985100514F901F90AC7
:10024800F801F80AF701F70A05171430F50000302D
:10025800F60006088B109A290B1C332934299A2991
:1002680083120313061B39293A296329F701F70A70
:100278007903031D402941295D29861A4429452906
:100288004829051085105B29051085140230F200F5
:100298000430F100BA30F000F00B5029F10B50296E
:1002A800F20B50290000831203138510F901F8019D
:1002B800982985100510F801F90198299829061A36
:1002C800662967296E29861A6A296B296E290510FD
:1002D80085109829061A712972297A290510F901B9
:1002E800F7011430F5000030F6009829861A7D29A8
:1002F8007E2982298510F901F90A9829061E85297F
:10030800862962297908031D8A298B296229770899
:10031800031D8F2990296229851893299429622918
:1003280005170514F901F90A06080B1074088A0064
:10033800730E8300FE0E7E0E09000730831203132E
:100348009F00831603138501831203138501F1307F
:1003580083160313860081138312031305150330D4
:1003680083120313A2008A30A1005530A000A00B0D
:10037800BB29A10BBB29A20BBB29000083120313C5
:100388008515033083120313A2008A30A10055306B
:10039800A000A00BCD29A10BCD29A20BCD290000CF
:1003A8008312031305118511851703308312031374
:1003B800A2008A30A1005530A000A00BE129A10BB2
:1003C800E129A20BE1290000831203138513061A01
:1003D800EE29EF29F129F901F729861AF429F529D7
:1003E800EF29F901F90A98308B00831603130113DA
:1003F8008312031305170510851008001434003400
:060408000134013408007C
:02400E0018FF99
:00000001FF
