:020000040000FA
:020000000A28CC
:10000800FE00030EF3000A08F40010280B283C2118
:10001800F600F5018301E7288B1C132814284428CF
:10002800F601F60A83120313061A1B281C28232834
:10003800861A1F2820282328051485144228051C01
:10004800262827282B2885182A282B2838280514FD
:1000580085147508031931283328013034280030F5
:10006800F0007008F50042287503031D3C283D2860
:100078004028851405104228851005148B10862801
:100088000B1C47284828862883120313061B4D2873
:100098004E286C287503031D522853286828051418
:1000A80085100830F2009D30F1000530F000F00BAB
:1000B8005B28F10B5B28F20B5B2862288312031381
:1000C8008514F601F50185288514F601F5018528C2
:1000D800061A6F2870287828861A732874287828B2
:1000E80005148514F6018528061A7B287C287E28A5
:1000F80005146628861A8128822885288514F50122
:10010800F50A0B1074088A00730E8300FE0E7E0E2B
:1001180009000730831203139F0083160313850118
:10012800F1308600FF3083120313850098308B006E
:10013800831603130113831203130511033083126B
:100148000313A2008A30A1005530A000A00BAA28F2
:10015800A10BAA28A20BAA28000083120313851159
:10016800033083120313A2008A30A1005530A00087
:10017800A00BBC28A10BBC28A20BBC280000831232
:100188000313051585150512033083120313A20006
:100198008A30A1005530A000A00BD028A10BD02890
:1001A800A20BD0280000831203130516061ADD28B7
:1001B800DE28E028F501E628861AE328E428DE2868
:1001C800F501F50A08003D218D2076080319ED2870
:1001D800EE28F82883120313061AF328F428FF28B8
:1001E800861AF728F828FF288312031305168515A1
:1001F800043085062B29061A022903290B29861E95
:10020800062907290B290516851505112B29061E10
:100218000E290F291729861A1229132917290512B9
:10022800851505152B29061E1A291B292829861E1E
:100238001E291F292829861B222923292829051632
:100248000830850605152B29051685150515033073
:1002580083120313A5008A30A4005530A300A30B12
:100268003329A40B3329A50B33290000E9280A28D0
:040278000134080045
:02400E0018FF99
:00000001FF
