:020000040000FA
:020000000A28CC
:10000800FE00030EF3000A08F400CB280B28A621F3
:10001800F500A721F600A821F700F80183011428AC
:10002800A9214C217708031D1A281B28222883128E
:1000380003130516851504308506AD2883120313AE
:10004800061A272828286328861A2B282C2863288C
:10005800051685150511023083120313A500043017
:10006800A400BA30A300A30B3728A40B3728A50B8C
:100078003728831203130515023083120313A500D2
:100088000430A400BA30A300A30B4828A40B4828C6
:10009800A50B48288312031305110230831203139A
:1000A800A5000430A400BA30A300A30B5928A40B60
:1000B8005928A50B5928831203130515AD28061ACC
:1000C800662867287E28861E6A286B287E280516DB
:1000D80085157608803AFF0080307F02031D762858
:1000E80001307502031C79287A285F2883120313CC
:1000F8000511AD28061E812882288A28861A852897
:1001080086288A28051285150515AD28061E8D280E
:100118008E289A28861E912892289A28861B952828
:1001280096289A280516083085065F28061E9D28F9
:100138009E28AA28861EA128A228AA28861FA528A4
:10014800A628AA28051685110515AD2805168515B2
:100158000515FF30F5070318F60AFF30F607F61BFA
:10016800B628B728B828BA28F501F6010330831253
:100178000313A5008A30A4005530A300A30BC2289E
:10018800A40BC228A50BC228000016280A288B1C1D
:10019800CE28CF28FF28F701F70A83120313061A7F
:1001A800D628D728DE28861ADA28DB28DE28051480
:1001B8008514FD28051CE128E228E6288518E5288D
:1001C800E628F3280514851478080319EC28EE2886
:1001D8000130EF280030F0007008F800FD2878039F
:1001E800031DF728F828FB2885140510FD2885101D
:1001F80005148B1045290B1C022903294529831254
:100208000313061B0829092927297803031D0D292B
:100218000E292329051485100830F2009D30F100BD
:100228000530F000F00B1629F10B1629F20B1629F0
:100238001D29831203138514F701F8014429851435
:10024800F701F8014429061A2A292B293229861A86
:100258002E292F293229051485144429061A3529EF
:1002680036293D290514F8011430F5000030F60050
:100278004429861A4029412944298514F801F80A95
:100288000B1074088A00730E8300FE0E7E0E0900A0
:100298000730831203139F00831603138501F1307F
:1002A8008600FF3083120313850098308B00831675
:1002B800031301138312031305110330831203136D
:1002C800A2008A30A1005530A000A00B6929A10B1B
:1002D8006929A20B692900008312031385110330D1
:1002E80083120313A2008A30A1005530A000A00B8E
:1002F8007B29A10B7B29A20B7B2900008312031306
:10030800051585150512033083120313A2008A30E0
:10031800A1005530A000A00B8F29A10B8F29A20B9B
:100328008F290000831203130516061A9C299D299C
:100338009F29F801A529861AA229A3299D29F80130
:0C034800F80A08001434003401340800E6
:02400E0018FF99
:00000001FF
