:020000040000FA
:020000000A28CC
:10000800FE00030EF1000A08F200E3280B28042280
:10001800A3000522A4000222F6000322F700F8013B
:10002800830116280622912183120313861A1D289C
:100038001E282028F801F6017708031D2428252802
:100048002C28831203138513851104308506C628CE
:1000580083120313861A312832286D28061A352888
:1000680036286D2885138511051502308312031370
:10007800A2000430A100BA30A000A00B4128A10BB7
:100088004128A20B41288312031305110230831261
:100098000313A2000430A100BA30A000A00B52281C
:1000A800A10B5228A20B5228831203130515023004
:1000B80083120313A2000430A100BA30A000A00BE1
:1000C8006328A10B6328A20B63288312031305116D
:1000D800C628861A702871288D28061E7428752847
:1000E8008D28851385112408803AFF0080307F020F
:1000F800031D802801302302031C832884288828B4
:10010800831203130515C62883120313051105135B
:10011800C628861E902891289928061A942895287A
:100128009928851785110511C628861E9C289D28A3
:10013800B328061EA028A128B328861BA428A52812
:10014800B328851CA828A928AB288517AC288513AF
:1001580008308506051CB128B22869288428861E1F
:10016800B628B728C328061EBA28BB28C328861F66
:10017800BE28BF28C328851385150511C6288513F1
:1001880085110511FF30A3070318A40AFF30A4073F
:10019800A41FCF28D028D228A301A401033083129A
:1001A8000313A2008A30A1005530A000A00BDA2862
:1001B800A10BDA28A20BDA28000020280A288B1CB9
:1001C800E628E728302983120313861AEC28ED283D
:1001D800F428061AF028F128F42805108510242997
:1001E8000518F728F828FC28851CFB28FC2809296D
:1001F80005108510780803190229042901300529FA
:100208000030F0007008F80024297803031D0D2938
:100218000E291929861E1129122915298510051458
:10022800242985140510F8012429061E1C291D29D6
:10023800202985140510242985100514F801F80AC9
:10024800F701F70AF601F60A05171430A300003083
:10025800A40006088B108A290B1C332934298A2903
:1002680083120313061B39293A295329F601F60A82
:100278007803031D402941294D29061A4429452997
:100288004829051085104B2905108514F801F70138
:10029800882985100510F701F80188298829861A08
:1002A800562957295E29061A5A295B295E290510FD
:1002B80085108829861A612962296A290510F8019A
:1002C800F6011430A3000030A4008829061A6D290D
:1002D8006E2972298510F801F80A8829861E752961
:1002E800762952297808031D7A297B29522976080C
:1002F800031D7F2980295229851883298429522999
:1003080005170514F801F80A06080B1072088A0088
:10031800710E8300FE0E7E0E09008B0107308312DA
:1003280003139F00831603138501831203138501AA
:10033800F130831603138600811383120313051308
:100348000510851005150330F5008A30F400553086
:10035800F300F30BAD29F40BAD29F50BAD29B42946
:100368008312031385150330F5008A30F4005530E5
:10037800F300F30BBD29F40BBD29F50BBD29C429E6
:10038800831203130511851185170330F5008A3090
:10039800F4005530F300F30BCF29F40BCF29F50BFC
:1003A800CF29D629831203138513861ADC29DD2960
:1003B800DF29F801E529061AE229E329DD29F801F0
:1003C800F80A051085108230F400DD30F300F30BD5
:1003D800EB29F40BEB29F02983120313051782305C
:1003E800F400DD30F300F30BF729F40BF729FC29AF
:1003F80098308B008316031301130800013401346D
:060408001434003408006A
:02400E0018FF99
:00000001FF
