:020000040000FA
:020000000A28CC
:10000800FE00030EF3000A08F40017280B28372215
:10001800F5003822F6003922F7003A22F800F901F3
:10002800FA018301F1288B1C1A281B286C288312DB
:100038000313061A202821282828861A2428252868
:10004800282805108510602805182B282C2830280A
:10005800851C2F2830283D28051085107A0803199B
:1000680036283828013039280030F0007008FA00A6
:1000780060287A03031D412842285328061E452874
:1000880046284F288510861F4A284B286028FA01E1
:10009800FA0A051460280510FA0185146028861EDE
:1000A8005628572858284F288510861F5C285D2811
:1000B8005E284B2805106028F801F80AF701F70AAE
:1000C80005171430F5000030F60006088B10EA28F2
:1000D8000B1C6F287028EA2883120313861B7528C7
:1000E80076288228051C79287A2882287703031D18
:1000F8007E287F2882280510FA018514061B85288A
:100108008628B228F701F70A7A03031D8C288D2860
:10011800AD28861A90289128942805108510AB28B8
:10012800851A97289828AB28051085140330F20003
:100138008A30F1005530F000F00BA028F10BA02810
:10014800F20BA028A728831203138510FA01F801DF
:10015800B22885100510F801FA01FA0A061AB5281E
:10016800B628BD28861AB928BA28BD2805108510D2
:10017800E828061AC028C128C9280510FA01F7017D
:100188001430F5000030F600E828861ACC28CD286F
:10019800D1288510FA01FA0AE828061ED428D5289D
:1001A800E8287A08031DD928DA28E8287708031DE3
:1001B800DE28DF28E8288518E228E328E82805173C
:1001C8000514FA01FA0AE82806080B1074088A00D0
:1001D800730E8300FE0E7E0E09003B22B5218312AA
:1001E8000313061AF828F928FB28FA01F7017808FA
:1001F800031DFF280029072983120313851385117E
:1002080004308506982983120313061A0C290D2930
:100218003F29861A102911293F29851385110515AB
:10022800823083120313A400DD30A300A30B1A2924
:10023800A40B1A29000083120313051182308312BC
:100248000313A400DD30A300A30B2829A40B28293D
:100258000000831203130515823083120313A400D0
:10026800DD30A300A30B3629A40B36290000831226
:10027800031305119829061A422943295F29861E66
:10028800462947295F29851385117608803AFF009A
:1002980080307F02031D522901307502031C552945
:1002A80056295A2983120313051598298312031313
:1002B800051105139829061E622963296B29861AD8
:1002C800662967296B298517851105119829061E46
:1002D8006E296F298529861E722973298529851A11
:1002E800762977298529851C7A297B297D298517EF
:1002F8007E29851308308506051C832984293B2916
:100308005629061E882989299529861E8C298D2912
:100318009529851E902991299529851385150511FB
:100328009829851385110511FF30F5070318F60A7A
:10033800FF30F607F61FA129A229A429F501F60125
:10034800033083120313A5008A30A4005530A3009C
:10035800A30BAC29A40BAC29A50BAC290000FB28E6
:100368000A288B010730831203139F00203083165D
:1003780003138500831203138501F13083160313D9
:1003880086008113831203130513051085100515C4
:10039800033083120313A2008A30A1005530A00055
:1003A800A00BD429A10BD429A20BD42900008312B5
:1003B80003138515033083120313A2008A30A100AA
:1003C8005530A000A00BE629A10BE629A20BE629CF
:1003D800000083120313051185118517033083125A
:1003E8000313A2008A30A1005530A000A00BFA29FF
:1003F800A10BFA29A20BFA29000083120313851313
:10040800061A072A082A0A2AFA01102A861A0D2A21
:100418000E2A082AFA01FA0A05108510823083127A
:100428000313A100DD30A000A00B182AA10B182A85
:100438000000831203130517823083120313A100EF
:10044800DD30A000A00B262AA10B262A000083126B
:1004580003130608A0002008F90098308B008316C3
:100468000313011308001434003401340134080064
:02400E0018FF99
:00000001FF
